:0600000002002902008548
:03000B000200866A
:0300130002008761
:03001B0002008858
:030023000200894F
:0300820002002653
:030026000200D005
:20008500323232323275989022AE828E9910990280FB223098FD859982C29822AD82AE83C2
:2000A500AFF08D828E838FF0120259FC601C0DBD00010E7B008C828B83C007C006C0051244
:2000C500008ED005D006D00780D82212008A9002E775F0801200A19002F575F0801200A1C5
:2000E5007F01EF24F650030201D77E01C3EF9E50030201C98F047D0074302CF582E43DF5EA
:2001050083C007C00612008E90002A12008ED0068E047D0074302CF582E43DF583C0061233
:20012500008E90003D12008ED006D0078FF0EEA4FCADF0C3EC940AED648094804026750853
:200145000A7509008C828D83C007C0061202ABE5828583F02430F582E435F0F58312008E5D
:20016500D006D0078FF0EEA4FCADF075080A7509008C828D83C007C006C005C00412027561
:20018500E5828583F02430F582E435F0F58312008ED004D005D006D007C3EC940AED64809B
:2001A5009480500E900020C007C00612008ED006D007900020C007C00612008ED006D007B4
:1E01C5000E0200F190000AC00712008ED0070F0200E71200987E008E8312008E80F4FE
:2002E70048656C6C6F20576F726C64210A00397839206D756C7469706C69636174696F6EB8
:09030700207461626C653A0A0081
:06005800E4787FF6D8FDFC
:200036007900E94400601B7A00900310780175A000E493F2A308B8000205A0D9F4DAF2755D
:02005600A0FF09
:2001E300E508450960467A01E50825E0F508E509334012F509E5829508E583950940030AE9
:2002030080E6C3E50913F509E50813F508C3E5829508F5F0E58395094005F58385F082C38D
:0D022300E50913F509E50813F508DAE122F5
:20005E007800E84400600A790175A000E4F309D8FC7800E84400600C7900900001E4F0A3A0
:04007E00D8FCD9FAD7
:200230007A10E4FBFCE58225E0F582E58333F583EB33FBEC33FCEB9508F5F0EC95094006E2
:09025000FCABF0438201DADD226F
:0D0029007581091202E3E5826003020026E2
:1C02590020F71430F6148883A88220F507E6A88375830022E280F7E49322E022B4
:20027500C2D5E58330E70DD2D5E4C39582F582E49583F583E50930E70BE4C39508F508E4C1
:160295009509F5091201E330D50BE4C39582F582E49583F58322E6
:2002AB00C2D5E58330E70DD2D5E4C39582F582E49583F583E50930E70DB2D5E4C39508F5EE
:1802CB0008E49509F50912023030D50BE4C39582F582E49583F5832274
:0402E30075820022FE
:00000001FF
